:020000040800F2
:10000000F0060020895D0008F10D0008F30D0008DE
:10001000F70D0008FB0D0008FF0D000800000000B0
:10002000000000000000000000000000030E0008B7
:10003000050E000800000000070E0008090E000869
:10004000A35D0008A35D0008A35D0008A35D000890
:10005000A35D0008A35D0008A35D0008A35D000880
:10006000A35D0008A35D0008A35D0008A35D000870
:10007000A35D0008A35D0008A35D0008A35D000860
:10008000A35D0008A35D0008A35D0008A35D000850
:10009000A35D0008A35D0008A35D0008A35D000840
:1000A000A35D0008A35D0008A35D0008A35D000830
:1000B000A35D00081F11000869580008A35D00082F
:1000C000A35D0008A35D0008A35D0008A35D000810
:1000D000A35D0008F75C0008A35D0008A35D0008AD
:1000E000A35D0008A35D0008A35D0008A35D0008F0
:1000F000A35D0008A35D0008A35D0008A35D0008E0
:10010000A35D0008A35D0008A35D0008A35D0008CF
:10011000A35D0008A35D0008A35D0008A35D0008BF
:10012000A35D0008A35D0008A35D0008A35D0008AF
:1001300000F002F800F042F80AA090E8000C8244B7
:100140008344AAF10107DA4501D100F037F8AFF294
:10015000090EBAE80F0013F0010F18BFFB1A43F0A5
:10016000010318478CA60000ACA60000103A24BF7B
:1001700078C878C1FAD8520724BF30C830C144BF0C
:1001800004680C607047000000230024002500264E
:10019000103A28BF78C1FBD8520728BF30C148BFEA
:1001A0000B607047642907F06983782907F0A28300
:1001B000002070471FB51FBD10B510BD07F028FE09
:1001C0001146FFF7F7FF00F00FF807F046FE03B403
:1001D000FFF7F2FF03BC05F0EBFC0000002100E09C
:1001E000491C8142FCD3704788B0002007900590DD
:1001F000804600244FF00A0900258246049000BF83
:100200000427002600BF00BF00BF4FF4165005F0C2
:10021000DDFC05F03DFC05F061FC05F0BBFA01F0EA
:1002200087F801F020FE04F03BFF05F0D1F800F064
:10023000DDFE01F0BFFC0120FE490860FE49C1F867
:1002400094013020FD490870FEE3002000F0E8FE34
:10025000012809D19DF81C10481C00EBD0714910F1
:10026000A0EB4101C9B20791002000F0D9FE02289D
:1002700005D1701C142190FBF1F201FB12060A2F2C
:1002800021D19DF81C0001281DD102A801F008FD14
:10029000BDF808000A280BDA0120E64908600020B2
:1002A000E549C1F894014FF4FA7005F054FC0AE0F6
:1002B0000020E04908600120DF49C1F894014FF4B3
:1002C000FA7005F048FC042F7ED19DF81C0001282F
:1002D000FAD1CDB909E00A2001F068F94FF47A703B
:1002E00005F039FC0098401C009000980728F2DBCC
:1002F00001F045F84FF47A7005F02DFC4FF47A7058
:1003000005F029FC6D1C00BF012D33D101F0C0F8B0
:100310004FF47A7005F01FFC0E2001F047F94FF4FE
:100320007A7005F018FC4FF4FA7005F014FC01F037
:1003300026F84FF47A7005F00EFC4FF47A7005F051
:100340000AFC4FF47A7005F006FC4FF47A7005F061
:1003500002FC4FF47A7005F0FEFB4FF47A7005F062
:10036000FAFB4FF47A7005F0F6FB4FF47A7005F063
:10037000F2FB6D1C022D18D1B148008838B1002065
:10038000AF490880AD48007830381FFA80FB5846E6
:1003900001F0EFFABBF1010F05D0BBF1020F02D063
:1003A000BBF1030F01D100246D1C032D21D103A843
:1003B00001F049FC0D2001F0F9F80A2005F0CBFB13
:1003C0000E2001F0F3F800E0EAE10A2005F0C3FB9B
:1003D000BDF80C00082809DC641C4C4509DD01F05F
:1003E00057F800F0CCFF0425002402E0002C00DDCB
:1003F000641E042D4BD102A801F052FCB8F1320F5B
:100400003EDCBDF808000A2817DCBDF80800052806
:100410000ADC01208749086000208749C1F894015F
:10042000022001F08BF808E00120824908600020DA
:100430008149C1F8940101F081F8BDF808000A284B
:1004400025DDBDF808000F280ADD00207949086085
:1004500001207949C1F89401032001F06FF808E008
:1004600000207449086001207349C1F8940101F02B
:1004700065F8BDF80800172809DD08F1010806E055
:1004800000F0DAFF4FF000080AF1010A0525052DFA
:100490004AD103A801F0D7FB02A801F001FCBDF886
:1004A0000C000A2814DA641C4C453DDD642005F07C
:1004B00052FB00F0EDFF00F062FFBAF1010F01D135
:1004C000042503E0BAF1020F00D1062500242BE039
:1004D000002C00DD641EBDF808000A2817DCBDF8FA
:1004E000080005280ADC0120524908600020524912
:1004F000C1F89401022001F021F808E001204D49E3
:10050000086000204C49C1F8940101F017F8BDF8CB
:1005100008000A2808DD00204649086001204649F5
:10052000C1F8940101F00AF8062D3DD103A801F0AD
:100530008AFB02A801F0B4FBBDF80C000A2807DA18
:10054000641C4C4530DD00F01AFF072500242BE029
:10055000002C00DD641EBDF808000A2817DCBDF879
:10056000080005280ADC01203249086000203249D1
:10057000C1F89401022000F0E1FF08E001202D49BC
:10058000086000202C49C1F8940100F0D7FFBDF8A5
:1005900008000A2808DD00202649086001202649B5
:1005A000C1F8940100F0CAFF072D1CD100F070FFC4
:1005B0000020204908602049C1F894014FF4FA70E6
:1005C00005F0C9FA00F064FF0A2005F0C4FA00F053
:1005D00053FF4FF4167005F0BEFA00F0D0FE0A206B
:1005E00005F0B9FA0825082D41D100F0C8FE6420B5
:1005F00005F0B1FA00F0C9FE00F0E5FE462000F07B
:10060000ECFE462000F0FAFE4FF47A7005F0A3FAF3
:100610004FF47A7005F09FFA4FF47A7005F09BFA68
:1006200000F0ADFE322005F096FA6D1C05F023FABD
:1006300008E000009481214200002342680000206D
:100640006A0000204FF47A7005F085FA4FF47A7052
:1006500005F081FA4FF47A7005F07DFA4FF47A7064
:1006600005F079FA4FF47A7005F075FA6D1C092DD2
:1006700058D103A801F0E7FA01A801F03DFBBDF84D
:100680000C000A2820DA641C4C454BDDBAF1020F3D
:100690000AD100BF642005F05EFA00F0CDFE00F044
:1006A0006EFE0AF1010A0DE0BAF1030F0AD16420CF
:1006B00005F051FA00F0C0FE0A2005F04CFA00F0F7
:1006C0005EFE0A2500242DE0002C00DD641EBDF82E
:1006D00004000A2818DCBDF8040005280ADC012003
:1006E000FE4908600020FE49C1F89401032000F093
:1006F00025FF09E00120F94908600020F849C1F808
:100700009401012000F01AFFBDF804000A2809DD59
:100710000020F24908600120F149C1F8940100204D
:1007200000F00CFF0A2D61D101A801F0E5FAB8F143
:10073000320F36DCBDF804000A281DDCBDF80400C9
:1007400005280ADC0120E54908600020E449C1F8D9
:100750009401032000F0F2FE09E00120DF49086067
:100760000020DF49C1F89401012000F0E7FEB8F154
:10077000000F01DD4FF00008BDF804000A2835DD48
:100780000020D64908600120D549C1F89401002015
:1007900000F0D4FEBDF80400192827DD08F1010897
:1007A00024E000F075FE4FF000080D2000F0FEFE82
:1007B0004FF47A7005F0CFF94FF47A7005F0CBF969
:1007C0000E2000F0F3FE4FF47A7005F0C4F90D200E
:1007D00000F0ECFE4FF47A7005F0BDF900F0CFFDAB
:1007E000642005F0B8F904F0CFFD0B25012F7DD171
:1007F0009DF81C0001287AD1F5BBBA48008838B1B1
:100800000020B8490880B848007830381FFA80FBCB
:1008100005F0EAF80690B549049808F07BFE0FD879
:10082000059810B101280AD104E004A9584600F047
:1008300041FF00BF04A9069800F03CFF00BF0DE097
:10084000059810B1012808D103E0584601F014F8CA
:1008500000BF069801F010F800BF00BF03A801F028
:10086000F2F9BDF80C00192809DA641C4C4509DDC1
:1008700000F085FD012500E004E0002402E0002CEA
:1008800000DD641E012D7CD100F022FE40F2DC5020
:1008900005F061F90D2000F089FE4FF47A7005F043
:1008A0005AF90E2000F082FE4FF47A7005F053F9E9
:1008B0000D2000F07BFE4FF47A7005F04CF90E200D
:1008C00000F074FE4FF47A7005F045F90D2000F049
:1008D0006DFE4FF47A7005F03EF90D2000F066FED3
:1008E0004FF47A7005F037F90E2001E008E10CE1D1
:1008F00000F05CFE4FF47A7005F02DF90D2000F049
:1009000055FE4FF47A7005F026F90E2000F04EFEE9
:100910004FF47A7005F01FF90E2000F047FE4FF4F7
:100920007A7005F018F90E2000F040FE4FF47A704E
:1009300005F011F90E2000F039FE4FF47A7005F041
:100940000AF90E2000F032FE4FF47A7005F003F938
:100950000D2000F02BFE4FF47A7005F0FCF80E200D
:1009600000F024FE4FF47A7005F0F5F80D2000F049
:100970001DFE4FF47A7005F0EEF80E2000F016FE22
:1009800000E043E04FF47A7005F0E5F80D2000F048
:100990000DFE4FF47A7005F0DEF80E2000F006FE32
:1009A0004FF47A7005F0D7F80E2000F0FFFD4FF4F9
:1009B0007A7005F0D0F80D2000F0F8FD4FF47A7051
:1009C00005F0C9F80E2000F0F1FD4FF47A7005F043
:1009D000C2F80D2000F0EAFD4FF47A7005F0BBF884
:1009E0000E2000F0E3FD4FF47A7005F0B4F80D200E
:1009F00000F0DCFD4FF47A7005F0ADF80E2000F049
:100A0000D5FD4FF47A7005F0A6F86D1C022D25D1A6
:100A100003A801F018F9BDF80C0014281BDA641CB7
:100A20004C451BDD00F0ABFC40F2DC5005F093F8C8
:100A300000F03CFD0D2000F0B9FD0A2005F08BF818
:100A40000E2000F0B3FD00E0C8E10A2005F083F8B5
:100A50000325002402E0002C00DD641E032D56D186
:100A600002A801F01DF9BDF808000A2805DDB8F15B
:100A7000000F04DDA8F1010801E008F10108B8F158
:100A8000050F1BDC1748008838B100201549088085
:100A90001548007830381FFA80FB04F0A5FF069057
:100AA000059810B1012808D103E0584600F0E4FE93
:100AB00000BF069800F07AFD00BF05E000F05FFC83
:100AC0000A2005F048F8042503A801F0BCF8BDF899
:100AD0000C00192815DA641C4C4509E09481214268
:100AE000000023426A0000206800002000005C43F0
:100AF0000DDD00F044FC0A2005F02DF8042500244B
:100B000005E0002C03DD641E01E000F038FC032F3B
:100B10002AD19DF81C0001281ED103A801F093F8EA
:100B2000BDF80C0005280BDC0120AD490860002051
:100B3000AC49C1F894014FF4FA7005F00CF813E0D9
:100B40000020A74908600120A649C1F894014FF48C
:100B5000FA7005F000F807E000F011FC0120A04950
:100B60000860A049C1F89401022F7CD19DF81C00B7
:100B7000012879D186B900F012FC00F01AFC14208B
:100B800000F02BFC172000F039FC41F2707004F0EB
:100B9000E2FF00F0F4FB0126022E06D100F078FC03
:100BA00000F0A8FC00F0EBFB0326042E10D100F0AF
:100BB000F6FB00F0FEFB142000F00FFC142000F008
:100BC0001DFC40F6B83004F0C6FF00F0D8FB052647
:100BD000062E06D100F042FC00F02EFC00F0CFFB08
:100BE0000726082E0ED103A801F02DF8002000F0F2
:100BF000DDFCBDF80C00052804DC00F049FC00F029
:100C0000BEFB09260A2E0ED103A801F01CF8002015
:100C100000F0CCFCBDF80C00052804DC00F00CFC56
:100C200000F0ADFB0B260C2E0ED103A801F00BF843
:100C3000002000F0BBFCBDF80C00052804DC00F02F
:100C400027FC00F09CFB0D260E2E11D103A800F00E
:100C5000FAFF002000F0AAFCBDF80C00052807DC14
:100C600000F0EAFB01E027E027E000F088FB0F2618
:100C7000102E0ED103A800F0E6FF002000F096FC35
:100C8000BDF80C00052804DC00F002FC00F077FB46
:100C90001126122E13D100F082FB00F08AFB1420E3
:100CA00000F09BFB172000F0A9FB40F6B83004F0E1
:100CB00052FF00F064FB132601E000F060FB052FFB
:100CC0003BD14948008838B100204749088047484F
:100CD000007830381FFA80FB012041490860414903
:100CE000C1F89401BBF1010F06D0BBF1020F0ED089
:100CF000BBF1030F20D115E0002039490860012025
:100D00003849C1F89401502004F025FF14E0012077
:100D10003349086000203349C1F89401502004F0A1
:100D20001AFF09E000202E4908602E49C1F89401FD
:100D3000502004F010FF00BF00BF062F15D1002087
:100D40002749086001202749C1F8940141F2883001
:100D500004F001FF01202249086000202149C1F868
:100D6000940141F2883004F0F6FE072F22D10020D2
:100D700000F01CFC03A800F066FFBDF80C0014286E
:100D800018DC01201649086000201649C1F89401BA
:100D900000F0F5FA4FF4FA7004F0DDFE00F040FBCD
:100DA0004FF47A7004F0D7FE00F0E9FA40F2DC501C
:100DB00004F0D1FE082F09D19DF81C00012805D1AF
:100DC00004F059FE4FF4FA6004F0C5FE092F05D176
:100DD00004F0DAFA4FF47A7004F0BDFEFFF735BA8A
:100DE00094812142000023426A0000206800002014
:100DF000704700BFFEE700BFFEE700BFFEE700BF91
:100E0000FEE7704770477047704700000CB5002040
:100E1000019000906C48006840F480306A49086096
:100E200000BF6948006800F4003000900198401C41
:100E30000190009818B90198B0F5A06FF1D16248FF
:100E4000006800F4003010B10120009001E00020A3
:100E500000900098012843D15C48006840F01000E1
:100E60005A4908600846006820F0030008600846F8
:100E7000006840F0020008605348406852494860EA
:100E80000846406848600846406840F48060486012
:100E90000846406820F47C1048600846406840F4EA
:100EA000E81048600846006840F08070086000BFA5
:100EB0004548006800F000700028F9D042484068BA
:100EC00020F00300404948600846406840F00200B6
:100ED000486000BF3C48406800F00C000828F9D189
:100EE0000CBD10B5FFF792FF10BD10B53648006875
:100EF00040F0010034490860084640683449084021
:100F00003149486008460068324908402E49086067
:100F10000846006820F4802008600846406820F4F5
:100F2000FE0048604FF41F008860FFF7DAFF4FF0C3
:100F300000602949086010BD10B500210020002282
:100F4000214B5B6803F00C0121B1042906D008296C
:100F500028D107E0214B224C236027E01F4B204C77
:100F6000236023E0184B5B6803F47010164B5B683A
:100F700003F48032022303EB904022B9194B434320
:100F8000174C23600DE0104B5B6803F4003323B172
:100F9000144B4343124C236003E0104B4343104C6B
:100FA000236003E00D4B0E4C236000BF00BF064BD7
:100FB0005B68C3F303130C4CE15C094B1B68CB402B
:100FC000074C236010BD00000010024000200240CA
:100FD0000000FFF8FFFFF6FE08ED00E000127A00C7
:100FE0000000002000093D000400002008B5012198
:100FF000442005F073FA1820ADF8000048208DF861
:10100000030069462C4804F0ADFF0120ADF8000054
:1010100028208DF803006946284804F0A3FF08BD86
:1010200010B5044614B10120254908702448007801
:1010300058B31021204805F028F850B108211E4867
:1010400005F023F828B101211C4805F01EF80128FD
:101050001BD10A2004F07FFD0020194908701021DF
:10106000154805F012F808B9012010BD08211248F2
:1010700005F00BF808B90220F7E701210F4805F049
:1010800004F8012815D10320EFE710210A4804F0E5
:10109000FCFF01280DD10821074804F0F6FF0128C4
:1010A00007D10121054804F0F0FF10B901200449DF
:1010B00008700020D9E70000001801400008014036
:1010C000140000207FB505460C460121022005F0E2
:1010D00012FAADF80850ADF804400020ADF80A004F
:1010E000ADF8060001A98D4805F030FB012211463C
:1010F0008A4805F0A2FE1D208DF8000000208DF822
:10110000010003208DF8020001208DF803006846DD
:1011100004F05FFE0121814805F074FE7FBD10B52B
:1011200001217E4806F037F958B101217B4806F0CD
:1011300043F97B48006808B9012000E000207849A5
:10114000086010BD30B589B005460C46012102206B
:1011500005F0D1F90121092005F0C0F901217148FC
:1011600004F0D1FF2020ADF8200018208DF82300D6
:1011700003208DF8220008A96B4804F0F3FEADF8B7
:101180001850ADF814400020ADF81A00ADF8160064
:1011900005A9624805F0DAFA7020ADF804000120D4
:1011A000ADF806000020ADF80C0001A95B4805F081
:1011B0004CFB0821594805F05EFF0121574805F016
:1011C00021FE09B030BD1CB50121042005F086F9CF
:1011D0000121082005F082F90121022005F08BF998
:1011E000C020ADF8040018208DF8070003208DF80A
:1011F000060001A94D4804F0B5FE0220ADF800003C
:1012000018208DF8030003208DF802006946464837
:1012100004F0A8FE1CBDF0B587B007460D46144685
:101220001E46601E80B2ADF814000120ADF810001B
:101230000020ADF81600ADF8120004A9384605F0FC
:1012400085FA7020ADF800000120ADF80200601CA6
:101250007043642190FBF1F0401E80B2ADF80600AF
:101260000020ADF80800012D06D0022D0DD0032D71
:1012700014D0042D24D11AE06946384605F0A3FAAB
:101280000821384605F0EEFE1AE06946384605F0BA
:10129000DCFA0821384605F0EEFE11E069463846D2
:1012A00005F020FB0821384605F0F2FE08E069460B
:1012B000384605F062FB0821384605F0F2FE00BF13
:1012C00000BF0121384605F09DFE0121384605F09A
:1012D00099FD07B0F0BD70B506460C461546012CC9
:1012E00006D0022C09D0032C0CD0042C14D10EE013
:1012F0002946304606F01EF80EE02946304606F034
:101300001BF809E02946304606F018F804E02946A3
:10131000304606F015F800BF00BF70BD0004004065
:101320009401234200081A00000C0140000801400B
:1013300008B50121802005F0D1F80F20ADF800009C
:1013400010208DF8030003208DF802006946FA484A
:1013500004F008FE0F21F84804F0B3FEFFF733FF56
:10136000632344F620620121F448FFF754FF32233F
:1013700044F620620221F148FFF74DFF08BD10B589
:101380000221ED4804F09DFE10BD10B50221EA488F
:1013900004F095FE0121E84804F093FE10BD10B55D
:1013A0000221E54804F08BFE0121E34804F087FEAA
:1013B00010BD10B50221E04804F081FE0421DE4892
:1013C00004F07FFE10BD10B50221DB4804F077FE6B
:1013D0000421D94804F073FE10BD70B5044644F6EC
:1013E0002066201D7043642190FBF1F0401E85B201
:1013F0002A460121D148FFF76EFF70BD70B5044643
:1014000044F62066C4F164007043642190FBF1F05F
:10141000401E85B22A460221C848FFF75CFF70BD16
:1014200010B5FFF7BCFF1E20FFF7D7FFFFF7CBFF7C
:101430004620FFF7E3FF10BD10B5FFF7F1FF40F2C4
:101440004C4004F088FB4FF4FA7004F084FBFFF783
:1014500096FF4FF47A7004F07EFB10BD10B5FFF7D5
:10146000DFFF4FF4D27004F076FBFFF788FF4FF4F4
:101470007A7004F070FB10BD10B5FFF786FF4620B0
:10148000FFF7ABFFFFF795FF1E20FFF7B7FF10BD7B
:1014900010B5FFF7F1FF4FF4966004F05CFBFFF727
:1014A0006EFF4FF47A7004F056FB10BD10B5FFF7D5
:1014B000E3FF4FF4C86004F04EFB4FF4C87004F033
:1014C0004AFBFFF75CFF4FF47A7004F044FB10BD59
:1014D00010B5FFF7A5FF4FF4E16004F03CFB4FF4BB
:1014E000E17004F038FBFFF74AFF4FF47A7004F024
:1014F00032FB10BD10B5FFF7BFFF4FF4167004F0BC
:101500002AFBFFF73CFF4FF47A7004F024FB10BD78
:1015100010B5FFF7B1FF40F2DC5004F01CFB40F2C5
:10152000DC5004F018FB4FF4487004F014FBFFF794
:1015300026FF4FF47A7004F00EFB10BD10B5044680
:10154000FFF72DFFFFF735FF34B1012C0ED0022C31
:1015500016D0032C28D11DE01420FFF73EFF1920E0
:10156000FFF74CFF142004F0F6FA1DE01620FFF7F9
:1015700034FF1520FFF742FF142004F0ECFA13E0CB
:101580001420FFF72AFF1D20FFF738FF142004F076
:10159000E2FA09E01A20FFF720FF1520FFF72EFFDF
:1015A000142004F0D8FA00BF00BF10BD10B50446E7
:1015B000FFF7F5FEFFF7FDFE102C79D2DFE804F00F
:1015C00008121C26303A447878784E555C636A716C
:1015D0001420FFF702FF1520FFF710FF062004F08C
:1015E000BAFA65E00420FFF7F8FE3C20FFF706FF9B
:1015F0001E2004F0B0FA5BE01220FFF7EEFE2B2075
:10160000FFF7FCFE1E2004F0A6FA51E01420FFF7BD
:10161000E4FE1720FFF7F2FE1E2004F09CFA47E0DC
:101620001720FFF7DAFE1420FFF7E8FE282004F069
:1016300092FA3DE02A20FFF7D0FE1420FFF7DEFEED
:10164000282004F088FA33E03C20FFF7C6FE0A2089
:10165000FFF7D4FE282004F07EFA29E03220FFF7BD
:10166000BCFE3520FFF7CAFE22E03220FFF7B5FEB0
:101670003620FFF7C3FE1BE03220FFF7AEFE34201A
:10168000FFF7BCFE14E01420FFF7A7FE1720FFF7BA
:10169000B5FE0DE01420FFF7A0FE1920FFF7AEFE07
:1016A00006E03220FFF799FE3720FFF7A7FE00BFC4
:1016B00000BF10BD2DE9F04781460C46FFF76FFED5
:1016C000FFF777FEB9F10F0F1ED2DFE809F0081E11
:1016D00041576D8399D2D2D2AFB6BDC4CB0014208E
:1016E000FFF77BFE1520FFF789FE062004F033FA92
:1016F000206807F017FD0746114A124B06F09AFFC3
:10170000054606F065FF2060B3E00420FFF765FEA4
:101710003C20FFF773FE1E2004F01DFA206807F03E
:1017200001FD0746084A094B06F084FF054606F00E
:101730004FFF20609DE00000001C014000040040BD
:10174000FA7E6ABC7493783FB81E85EB51B89E3F11
:101750001220FFF742FE2B20FFF750FE1E2004F060
:10176000FAF9206807F0DEFC0746FC4AFC4B06F05D
:1017700061FF054606F02CFF20607AE01420FFF799
:101780002CFE1720FFF73AFE1E2004F0E4F9206833
:1017900007F0C8FC0746F14AF14B06F04BFF05463F
:1017A00006F016FF206064E01720FFF716FE1420F5
:1017B000FFF724FE282004F0CEF9206807F0B2FCE1
:1017C0000746E84AE84B06F035FF054606F000FFFD
:1017D00020604EE02A20FFF700FE1420FFF70EFEE7
:1017E000282004F0B8F9206807F09CFC0546DD4A83
:1017F000DD4B06F01FFF074606F0EAFE206038E0EA
:101800003C20FFF7EAFD0A20FFF7F8FD282004F04E
:10181000A2F9206807F086FC0546D24AD24B06F0B2
:1018200009FF074606F0D4FE206022E03220FFF7D1
:10183000D4FD3520FFF7E2FD1BE03220FFF7CDFDA0
:101840003620FFF7DBFD14E03220FFF7C6FD342021
:10185000FFF7D4FD0DE01420FFF7BFFD1720FFF7C1
:10186000CDFD06E01420FFF7B8FD1920FFF7C6FDF7
:1018700000BF00BFBDE8F08710B50446FFF78FFD3D
:10188000FFF797FD0F2C72D2DFE804F008121C2638
:10189000303A447171714E555C636A001420FFF751
:1018A0009CFD1520FFF7AAFD062004F054F95EE028
:1018B0000E20FFF792FD2320FFF7A0FD1E2004F06D
:1018C0004AF954E01220FFF788FD1C20FFF796FD2F
:1018D0001E2004F040F94AE01420FFF77EFD172097
:1018E000FFF78CFD1E2004F036F940E01720FFF7CB
:1018F00074FD1420FFF782FD282004F02CF936E057
:101900001E20FFF76AFD1420FFF778FD282004F061
:1019100022F92CE02820FFF760FD0A20FFF76EFD7A
:10192000282004F018F922E03220FFF756FD352078
:10193000FFF764FD1BE03220FFF74FFD3620FFF775
:101940005DFD14E03220FFF748FD3420FFF756FD1F
:101950000DE01420FFF741FD1720FFF74FFD06E0D3
:101960001420FFF73AFD1920FFF748FD00BF00BF24
:1019700010BD70B50546012D04D0022D22D0032DD7
:101980007DD158E000207949086001207849C1F8EC
:1019900094010A2004F0DFF8FFF760FD4FF4FA70BD
:1019A00004F0D9F80F20FFF701FE04E04FF47A703D
:1019B00004F0D1F8641C092CF8DBFFF7E0FCFFF71A
:1019C0004DFD5CE001206949086000206849C1F8CC
:1019D00094010A2004F0BFF8FFF78CFD4FF4FA7071
:1019E00004F0B9F80A20FFF7E1FD04E04FF47A7043
:1019F00004F0B1F8641C0A2CF8DBFFF7C0FCFFF719
:101A00001BFD642004F0A7F80A20FFF7CFFD002497
:101A100004E04FF47A7004F09EF8641C0A2CF8DBA2
:101A2000FFF7ADFC0A2004F096F8FFF717FD0A2037
:101A300004F091F823E000204C4908604C49C1F8BB
:101A400094010A2004F087F8FFF754FD4FF4FA7070
:101A500004F081F80A20FFF7A9FD04E04FF47A7042
:101A600004F079F8641C0A2CF8DBFFF788FCFFF718
:101A7000F5FC642004F06FF8FFF7DEFC00BF00BF48
:101A800070BD2DE9F04104460D462946204607F079
:101A900072FE0646374907F03DFE0AD2012033495F
:101AA000086000203249C1F894010220FFF746FD8A
:101AB00026E02946204607F05EFE0646002107F094
:101AC00029FE09D201202949086000202849C1F8CF
:101AD0009401FFF733FD13E02946204607F04BFE43
:101AE000804607F01FFB0646234A244B07F008F9FF
:101AF00003D20120FFF722FD02E00320FFF71EFDC5
:101B0000BDE8F0812DE9F04104460D462946204606
:101B100007F031FE0646174907F0FCFD0AD2012006
:101B20001249086000201249C1F894010220FFF711
:101B300005FD39E02946204607F01DFE0646002136
:101B400007F0E8FD1CD20120084908600020084980
:101B5000C1F89401FFF7F2FC26E00000B81E85EB07
:101B600051B89E3F7B14AE47E17AA43F9481214255
:101B700000002342CDCC4C3D9A9999999999A9BFDF
:101B80002946204607F0F7FD804607F0CBFA0646C7
:101B9000064A074B07F0B4F803D20120FFF7CEFC4A
:101BA00002E00320FFF7CAFCBDE8F0819A999999F9
:101BB0009999A9BF08B50121082004F08FFCA8203D
:101BC000ADF8000002208DF8020010208DF803000F
:101BD00069465F4804F0C6F9A8215D4804F071FA2F
:101BE0004FF4A870ADF8000028208DF80300694676
:101BF000574804F0B7F908BD10B58021544804F0E7
:101C00005EFA0C2003F083FF8021514804F059FA5A
:101C100010BD10B520214E4804F051FA0C2003F0FD
:101C200076FF20214A4804F04CFA10BD10B5082177
:101C3000474804F044FA0C2003F069FF08214448A7
:101C400004F03FFA10BD70B5054600240026FFF7EA
:101C5000D3FF00BF012003F05AFF4FF480713C48CE
:101C600004F013FA012807D1601C84B243F2B330A8
:101C700084420FDD022070BD012C09DD04EB8400DD
:101C800040004FF4937190FBF1F028800020F2E7C0
:101C9000701C86B243F2B3308642DBDD0220EAE7F5
:101CA00070B5054600240026FFF7B3FF00BF0120F2
:101CB00003F02DFF4021264804F0E7F9012807D161
:101CC000601C84B243F2B33084420FDD022070BD49
:101CD000012C09DD04EB840040004FF4937190FB6C
:101CE000F1F028800020F2E7701C86B243F2B33096
:101CF0008642DCDD0220EAE770B5054600240026B6
:101D0000FFF794FF00BF012003F001FF10211048EE
:101D100004F0BBF9012807D1601C84B243F2B33050
:101D200084420FDD022070BD012C09DD04EB84002C
:101D300040004FF4937190FBF1F028800020F2E70F
:101D4000701C86B243F2B3308642DCDD0220EAE743
:101D5000000C014070B505460C4600F0EFF9D020AC
:101D600000F0A0FA00F02BFA18B100F007FA0120F9
:101D700070BD284600F096FA00F021FA204600F0E7
:101D800091FA00F01CFA18B100F0F8F90120EFE721
:101D900000F0F4F90020EBE770B504460025BC2CF8
:101DA00001DB012510E0622C01DB02250CE02A2C6E
:101DB00001DB032508E0142C01DB042504E00A2CD8
:101DC00001DB052500E0062529461A20FFF7C2FFA2
:101DD00070BD70B50446B4F57A7F01DD4FF47A74B6
:101DE000042C00DA04244FF47A7090FBF4F0401EC7
:101DF000C5B229461920FFF7ADFF0546264604EB7C
:101E0000D671C1F34F00FFF7C7FF70BD70B5044630
:101E100000F094F9D02000F045FA00F0D0F9204607
:101E200000F040FA00F0CBF900F088F9D12000F082
:101E300039FA00F0C4F9002000F05FFA054600F01E
:101E40009DF9284670BD10B50446E006010E1C2021
:101E5000FFF780FF10BD10B50446E006010E1B2001
:101E6000FFF778FF10BD38B50121084604F036FBB6
:101E70000121042004F032FB4FF40040ADF80000D3
:101E800010208DF8030003208DF802006946954864
:101E900004F068F80121944804F035F900209349D2
:101EA000086000F032F980216B20FFF753FF6420B7
:101EB00003F051FE00216B20FFF74CFF0320FFF7DA
:101EC000CAFF0020FFF7BFFF3220FFF782FF00218B
:101ED0003820FFF73FFF00216A20FFF73BFF00217A
:101EE0002320FFF737FF80213720FFF733FF7520CE
:101EF000FFF78CFF0446682C0BD101216B20FFF704
:101F000029FF00216C20FFF725FF3220FFF761FF3A
:101F100001E0012038BD0020FCE72DE9F041064634
:101F20000F4614461D4600F009F9002141EA46011A
:101F3000C8B200F0B7F900F042F920B100F01EF984
:101F40000120BDE8F081384600F0ACF900F037F927
:101F500000F0F4F8012101EB4601C8B200F0A2F94B
:101F600000F02DF90DE0012C04D1002000F0C5F99E
:101F7000287003E0012000F0C0F92870601EC4B290
:101F80006D1C002CEFD100F0F9F80020D9E72DE905
:101F9000F84F6B46022241216820FFF7BEFF9DF8F3
:101FA00001009DF8001040EA01200FFA80FA504627
:101FB00006F054FD804600224D4B06F0F7FB064626
:101FC0004C4A4D4B06F036FB044606F001FB8346B7
:101FD0004A49584607F0D2FA044607F033FA00B2ED
:101FE000BDE8F88F2DE9FC4104460D4616466B46C8
:101FF000062243216820FFF790FF0746BFB99DF8EE
:1020000001009DF8001040EA012000B220809DF8F8
:1020100003009DF8021040EA012000B228809DF8DC
:1020200005009DF8041040EA012000B230803846D7
:10203000BDE8FC812DE9FC4104460D4616466B4681
:1020400006223B216820FFF768FF0746BFB99DF8CD
:1020500001009DF8001040EA012000B220809DF8A8
:1020600003009DF8021040EA012000B228809DF88C
:1020700005009DF8041040EA012000B23080384687
:10208000BDE8FC812DE9F04105460E46174698460D
:1020900000F054F8002141EA4501C8B200F002F90D
:1020A00000F08DF820B100F069F80120BDE8F08162
:1020B000304600F0F7F800F082F800240CE018F841
:1020C000040000F0EFF800F07AF818B100F056F8CC
:1020D0000120EBE7601CC4B2BC42F0DB00F04EF81C
:1020E0000020E3E70008014000023000BC0121426B
:1020F00000407540A4703D0AD74342400000C842EA
:1021000010B5022003F003FD10BD08B50121082021
:1021100004F0E4F94FF44060ADF8000010208DF8B1
:10212000030003208DF8020069468D4803F01AFF72
:102130004FF440618A4803F0C2FF08BD10B58848DB
:10214000001D006820F470408549091D086008469C
:10215000006840F4405008600120824908608249CC
:10216000C1F8A801FFF7CCFF00207E490860FFF707
:10217000C7FF00207C49C1F8A80110BD10B5784800
:10218000001D006820F470407549091D086008466C
:10219000006840F44050086000207249091F086040
:1021A0007149C1F8AC01FFF7ABFF01206D49091F70
:1021B00008606D49C1F8AC01FFF7A2FF10BD10B572
:1021C00000246748001D006820F470406449091D20
:1021D00008600846006840F400400860012061493A
:1021E0000860FFF78DFF01205F49C1F8A801FFF7E4
:1021F00087FF07E0601CC4B2FA2C03DDFFF7BEFFC7
:10220000012010BD5748803800680028F2D1554998
:10221000091F086000BFF4E710B500205149091FED
:1022200008604F48001D006820F470404C49091DAB
:1022300008600846006840F44050086000204A49A1
:10224000C1F8AC01FFF75CFF01204649091F086097
:10225000FFF756FF00204449C1F8A80110BD10B592
:1022600000204049091F08603D48001D006820F417
:1022700070403B49091D08600846006840F4405022
:10228000086001203849C1F8AC01FFF739FF01208F
:102290003449091F0860FFF733FF00203249C1F8B5
:1022A000A80110BD70B504462D48001D006820F43B
:1022B00070402B49091D08600846006840F44050F2
:1022C000086000202749091F0860002512E0E00986
:1022D000244908606006040E01202349C1F8A801C2
:1022E000FFF70EFF00201F49091F0860FFF708FFD6
:1022F000681CC5B2082DEADB70BD70B50546002428
:102300001748001D006820F470401549091D086039
:102310000846006840F400400860002615E00020F0
:102320001049091F0860FFF7EBFE01200E49C1F8B4
:10233000A8016006040E0B488038006808B1601CD4
:10234000C4B2FFF7DDFE701CC6B2082EE7DB15B97C
:10235000FFF785FF01E0FFF75FFF204670BD00003B
:10236000000C0140AC8121420080214210B5C823FD
:102370004FF48062F74940F6F63002F09BFC10BD46
:1023800010B586B00446F4A000680390F3A000687E
:102390000290F3A000680190F2A00068009004F0A1
:1023A000030003A9085C8DF8140003A8C4F3C1015D
:1023B000405C8DF8150003A8C4F38111405C8DF8D2
:1023C000160004F0030002A9085C8DF8100002A8B2
:1023D000C4F3C101405C8DF8110002A8C4F381115F
:1023E000405C8DF8120005AA032140F2264002F05D
:1023F000E7FB18B14FF0FF3006B010BD04AA03216F
:1024000040F22A4002F0DCFB10B14FF0FF30F3E75E
:10241000019805900098049004F0040058B19DF8CC
:10242000140040F001008DF814009DF8100040F0F9
:1024300001008DF8100004F0200058B19DF815003F
:1024400040F001008DF815009DF8110040F00100EA
:102450008DF8110004F4807058B19DF8160040F01A
:1024600001008DF816009DF8120040F001008DF873
:10247000120005AA03214FF4886002F0A1FB10B1FD
:102480004FF0FF30B8E704AA032140F2314002F0D8
:1024900097FB10B14FF0FF30AEE7B3480481002046
:1024A000AAE71FB50446B048007A00F0030054F8CC
:1024B00020000190AC48007A00F0040010B10198AF
:1024C00040420190A848007AC0F3C10054F82000AF
:1024D0000290A548007A00F0200010B10298404216
:1024E0000290A148007AC0F3811054F820000390B4
:1024F0009D48008900F4807010B103984042039019
:102500009A49019880FB0101800F40EA8100019007
:102510009649029880FB0110820042EA9170029075
:102520009249039880FB0110820042EA9170039067
:102530000198000E8DF800000198000C8DF8010044
:102540000198000A8DF802000198C0B28DF80300CE
:102550006A4604214FF4747002F032FB18B14FF058
:10256000FF3004B010BD0298000E8DF800000298F4
:10257000000C8DF801000298000A8DF80200029804
:10258000C0B28DF803006A4604214FF4757002F062
:1025900017FB10B14FF0FF30E3E70398000E8DF802
:1025A00000000398000C8DF801000398000A8DF8D4
:1025B00002000398C0B28DF803006A4604214FF46C
:1025C000767002F0FDFACCE770B588B0064601A837
:1025D00001F0FDFCBDF804000021C90341EA5045AB
:1025E000C4036148007A00F0030056F8200005900B
:1025F0005D48007A00F0040010B105984042059053
:102600005948007AC0F3C10056F820000690564899
:10261000007A00F0200010B106984042069052481F
:10262000007AC0F3811056F8200007904E480089C8
:1026300000F4807010B10798404207900598C117C8
:10264000A0FB042301FB043100FB0510810041EADB
:10265000927005900698C117A0FB042301FB04317A
:1026600000FB0510810041EA927006900798C1179F
:10267000A0FB042301FB043100FB0510810041EAAB
:10268000927007900598000E8DF808000598000CD0
:102690008DF809000598000A8DF80A000598C0B267
:1026A0008DF80B000698000E8DF80C000698000CB3
:1026B0008DF80D000698000A8DF80E000698C0B23D
:1026C0008DF80F000798000E8DF810000798000C89
:1026D0008DF811000798000A8DF812000798C0B213
:1026E0008DF8130002AA0C214FF4257002F068FA4D
:1026F00008B070BD30B585B004461DA207CA02AB54
:1027000007C3C82C03DD4FF0FF3005B030BDC82033
:1027100090FBF4F0401E85B2280A8DF80000E8B264
:102720008DF801006A46022140F2162002F048FAB4
:1027300010B14FF0FF30E8E702AA0C2140F6C120AB
:1027400002F03EFA10B14FF0FF30DEE70648848118
:102750000020DAE7669900084CCD6C000CC92C000B
:1027600036567600264666008000002009E3CA023D
:10277000FEF2ABC4AAF1DFDFBBAFDFDF0146FC48EE
:1027800080890880002070472DE9FC4706460F46E7
:1027900006F0070010B1B7F5C86F03DD4FF0FF304A
:1027A000BDE8FC87384606F0A1FE8146F14906F0F7
:1027B00053FD8046684601F08EFB9DF8000002281C
:1027C00006D0042816D0082826D0102848D135E095
:1027D0004FF08D41404606F0D1FE814606F04EFE98
:1027E00084B2E549404606F0C9FE814606F046FE41
:1027F00085B238E04FF08C41404606F0BFFE81467E
:1028000006F03CFE84B2DD49404606F0B7FE814644
:1028100006F034FE85B226E04FF08B41404606F0CC
:10282000ADFE814606F02AFE84B2D549404606F048
:10283000A5FE814606F022FE85B214E04FF08A41E3
:10284000404606F09BFE814606F018FE84B2CD4954
:10285000404606F093FE814606F010FE85B202E087
:102860004FF0FF309CE700BF20128DF80400E0B26B
:102870008DF8050028128DF80600E8B28DF80700E3
:1028800006F00100A0B101AA02214FF4EA7002F0A3
:1028900097F910B14FF0FF3082E70DF106020221E7
:1028A0004FF4927002F08CF910B14FF0FF3077E7DF
:1028B00006F00200A0B101AA02214FF4EC7002F070
:1028C0007FF910B14FF0FF306AE70DF106020221E7
:1028D0004FF4947002F074F910B14FF0FF305FE7DD
:1028E00006F00400A0B101AA02214FF4EE7002F03C
:1028F00067F910B14FF0FF3052E70DF106020221E7
:102900004FF4967002F05CF910B14FF0FF3047E7DA
:10291000002045E738B504460020009004F001008F
:1029200020B19DF8000040F03000009004F002005B
:1029300020B19DF8000040F00C00009004F004006D
:1029400020B19DF8000040F0030000906A4601218C
:102950004FF4A47002F034F938BD38B50446012CA8
:1029600001DA012402E0042C00DD0424601EC0B260
:1029700000906A46012140F24F1002F021F938BD63
:1029800038B50446052094FBF0F085B228128DF886
:102990000000E8B28DF801006A4602214FF4EF70A2
:1029A00002F00EF938BD38B50446052094FBF0F06E
:1029B00085B228128DF80000E8B28DF801006A4651
:1029C00002214FF4ED7002F0FBF838BDF8B5054672
:1029D0000E464FF47A7095FBF0F000FB06F4200EE3
:1029E0008DF80000200C8DF80100200A8DF80200FF
:1029F000E0B28DF803006A4604214FF4AE7002F095
:102A0000DFF8F8BD38B50446052094FBF0F084B239
:102A100020128DF80000E0B28DF801006A46022114
:102A20004FF4AD7002F0CCF838BD38B5044605203F
:102A300094FBF0F084B220128DF80000E0B28DF823
:102A400001006A4602214FF4AC7002F0B9F838BDBB
:102A500038B5044614B94FF0FF3038BD6A4604213A
:102A60004FF4587002F0E9F810B14FF0FF30F4E77E
:102A70009DF8000000069DF8011040EA01409DF815
:102A8000021040EA01209DF8031008432060002056
:102A9000E3E738B50446200E8DF80000200C8DF8D1
:102AA0000100200A8DF80200E0B28DF803006A46AA
:102AB00004214FF4587002F083F838BD38B504464D
:102AC00014B94FF0FF3038BD6A4604214FF47170DD
:102AD00002F0B3F810B14FF0FF30F4E79DF80000BA
:102AE00000069DF8011040EA01409DF8021040EAFE
:102AF00001209DF80310084300EB80008000206057
:102B00000020E0E738B504461420B4FBF0F4200EB2
:102B10008DF80000200C8DF80100200A8DF80200CD
:102B2000E0B28DF803006A4604214FF4717002F0A0
:102B300047F838BD38B5044664B120208DF8000050
:102B400028208DF8010030208DF8020038208DF803
:102B5000030004E0A3220421684604F0F1FF6A4662
:102B6000042140F69E2002F02BF800F083FC38BDD3
:102B70008000002000004843000040460000C0459F
:102B8000000040450000C04438B5044664B1C02090
:102B90008DF80000C2208DF80100C4208DF80200DD
:102BA000C6208DF8030004E08B220421684604F05F
:102BB000C7FF6A46042140F6982002F001F800F0B1
:102BC00059FC38BD3EB504466CB1FDA1D1E90020E9
:102BD0008968CDE9002002916A4609214FF4976087
:102BE00001F0EEFF3EBDF9A2D2E900109268CDE9F6
:102BF000010200916A4609214FF4976001F0E0FF5D
:102C0000F0E73EB5044602208DF80000CA208DF89A
:102C10000100E3208DF8020009208DF803006A46C8
:102C20000421682001F0CCFFA3208DF8000004F0FF
:102C3000400048B1C0208DF80100C8208DF8020086
:102C4000C2208DF8030006E0A3208DF801008DF866
:102C500002008DF8030004F4C07048B1C4208DF860
:102C60000400CC208DF80500C6208DF8060006E093
:102C7000A3208DF804008DF805008DF80600A32030
:102C80008DF807008DF808008DF809006A460A21C2
:102C900040F6A72001F094FF04F0030018B12020B3
:102CA0008DF8000002E0D8208DF800006A4601216E
:102CB00040F6B62001F084FF04F0200018B1012096
:102CC000FFF780FF02E00020FFF77CFF04F4C070F4
:102CD00008B304F4807060B1B2208DF800008B203E
:102CE0008DF80100B6208DF802009B208DF80300BE
:102CF0000BE0B0208DF8000080208DF80100B4209A
:102D00008DF8020090208DF803006A46042140F6F9
:102D1000A22001F055FF04F0010020B3F8208DF847
:102D200000006A4601214FF40B6001F049FFFA21CF
:102D30000720FFF729FD0720FFF7ECFD0120FFF733
:102D40000CFE6420FFF71CFE4FF4FA70FFF72BFE19
:102D5000C821A148FFF73AFE2820FFF753FE0A20BA
:102D6000FFF763FE08E0D8208DF800006A460121D5
:102D70004FF40B6001F024FF04F0020018B1D920D9
:102D80008DF8000002E0D8208DF800006A4601218D
:102D900040F23D7001F014FF04F0040018B101206E
:102DA000FFF7F2FE02E00020FFF7EEFE04F0100055
:102DB00018B10120FFF7BEFE02E00020FFF7BAFEC7
:102DC00044F008008549488100F054FB0020834905
:102DD000887304F0400018B10846807B801D88731A
:102DE00004F4C07020B17D48807B801D7B498873CE
:102DF00004F0140020B17948807B10307749887343
:102E000004F0030020B17548807B001D734988736E
:102E100000203EBD0146714840890880002070476F
:102E20002DE9F0410446E07800F0C006E07800F0BB
:102E30003F05607800F0010098B1EF102846E917CF
:102E400005EB5171C910A5EBC101491C01F0FF0848
:102E50006248006820B161484146026838469047A0
:102E600000BF607800F0080030B15C48406818B1DD
:102E7000B0115A4A516888470020BDE8F08110B56A
:102E800086B0044656A207CA03AB07C357A207CAB7
:102E90008DE80700012C09D0022C0ED103AA0B21CA
:102EA00040F6822001F08CFE06B010BD6A460B2170
:102EB00040F6822001F084FEF6E74FF0FF30F3E7A2
:102EC0002DE9F04F8DB00746884615469946DDE955
:102ED000166B0024002030804049887B5A4605A9A3
:102EE00001F0D1F918B101200DB0BDE8F08F3B48D9
:102EF000807A00F01400002861D09DF814000006CC
:102F00009DF8151040EA01409DF8161040EA012096
:102F10009DF81710084328609DF8180000069DF8DA
:102F2000191040EA01409DF81A1040EA01209DF86E
:102F30001B10084368609DF81C0000069DF81D10DA
:102F400040EA01409DF81E1040EA01209DF81F1044
:102F50000843A8609DF8200000069DF8211040EA73
:102F600001409DF8221040EA01209DF823100843FB
:102F7000E86004F11000C4B2286800140190686889
:102F800000140290A86800140390E86800140490EC
:102F900001984043029901FB0100039901FB0100E4
:102FA000049901FB010ABAF1706F02DBBAF1885F84
:102FB00022DD00F05FFA00203080032094E721E05A
:102FC000B8AAB38DB4980D355D000000B8AAAAAABE
:102FD000B088C3C5C700000009E3CA028000002012
:102FE000D8B1B9F38BA391B609B4D900DAB1B9F36A
:102FF0008BA391B6DAB4DA00B6F9000040F4807021
:10300000308000BF3448807A00F0400020B305A92A
:10301000601C085C095D40EA012000B2A8F80000CD
:1030200005A9E01C095C05AAA01C105C41EA00206F
:1030300000B2A8F8020005A9601D095C201D105C03
:1030400041EA002000B2A8F80400A01DC4B2B6F9FD
:10305000000040F0080030801F48408900F4C07034
:1030600008B305A9601C085C095D40EA012000B2B4
:10307000388005A9E01C095C05AAA01C105C41EA87
:10308000002000B2788005A9601D095C201D105C3D
:1030900041EA002000B2B880A01DC4B2B6F9000019
:1030A00040F0700030800C48807A00F0030018B1C6
:1030B00005A90819FFF7B4FE484600F048FD0020B6
:1030C00012E70146044801600020704701460248AB
:1030D00041600020704700008000002038B50446A1
:1030E000F74890F82400C0B114B10220009001E02C
:1030F00000200090F24A1268D17BF14A52681078A1
:103100006B460122FEF7BEFF10B14FF0FF3038BD15
:103110009DF80010EA48417423E0E948807A10B92C
:103120004FF0FF30F3E724B1E548407C08B10020C0
:10313000EDE714B10120009001E000200090E04A8A
:103140001268D17BDE4A526810786B460122FEF786
:1031500099FF10B14FF0FF30D9E79DF80010D84823
:1031600041740020D3E738B500241FE0D44800683C
:10317000C07AA04204D0D2480068407DA04200D16D
:1031800012E0CF49496808786B4601222146FEF7D4
:10319000C4FE10B14FF0FF3038BD9DF8002021462D
:1031A000C8A004F037FB00BF601CC4B2C44840682C
:1031B0000079A042DADC0020EEE770B504460D4647
:1031C000BF480068C07AA04204D0BD480068407D76
:1031D000A04202D14FF0FF3070BDB948406800797D
:1031E000A04202DC4FF0FF30F6E7B54949680878A5
:1031F0002B4601222146FEF790FEEDE738B5044646
:10320000AF4890F82300A04201D1002038BD14B18E
:103210003020009001E000200090A948807C20B17F
:103220009DF8000040F002000090A54890F82200B0
:1032300020B19DF8000040F080000090A04A126884
:10324000117D9F4A526810786B460122FEF71AFFE3
:1032500010B14FF0FF30D9E7994880F823400020A3
:10326000D4E738B5044604F0700010B10120009096
:1032700005E014B10020009001E040200090904A49
:103280001268917C8E4A526810786B460122FEF7D4
:10329000F9FE20B100218A488172481E38BD9DF890
:1032A000000020F04001864801730020009004F0E7
:1032B000400020B99DF8000040F00400009004F0A8
:1032C000200020B99DF8000040F00200009004F0BA
:1032D000100020B99DF8000040F00100009004F0BB
:1032E000080020B99DF8000040F038000090744AB2
:1032F0001268D17C724A526810786B460122FEF740
:10330000C1FE20B100216E488172481EC6E724B17B
:10331000082C02D00020FFF771FF69488472002159
:103320000175322002F017FC0020B7E738B50446DB
:103330006348807CA04201D1002038BD002C46D0DB
:103340005F4A126811795E4A526810786B46012212
:10335000FEF7E3FD10B14FF0FF30EEE79DF80000FF
:1033600020F020000090564A12681179544A5268A1
:1033700010786B460122FEF785FE10B14FF0FF304A
:10338000DBE7032002F0E7FB022000904C4890F8B6
:10339000220020B19DF8000040F0800000904848D5
:1033A00090F8230020B19DF8000040F0300000901C
:1033B000434A1268117D424A526810786B460122D6
:1033C000FEF760FE002851D04FF0FF30B5E73C4AD1
:1033D000126811793A4A526810786B460122FEF75A
:1033E0009CFD10B14FF0FF30A7E73548807A00F020
:1033F000010028B19DF8000040F02000009004E09A
:103400009DF8000020F0200000902D4A12681179EC
:103410002B4A526810786B460122FEF733FE10B13A
:103420004FF0FF3089E7032002F095FB244890F825
:10343000220010B18020009001E000200090204880
:1034400090F8230020B19DF8000040F0300000907B
:103450001B4A1268117D1A4A526810786B46012285
:10346000FEF710FE10B14FF0FF3066E71448847489
:10347000002062E708B51248807A10B94FF0FF309B
:1034800008BD002000900E4A1268D17B0C4A526899
:1034900010786B460122FEF7F5FD10B14FF0FF30BA
:1034A000EEE7074A12685179054A526810786B4670
:1034B0000122FEF7E7FD68B14FF0FF30E0E70000C2
:1034C00018000020252335783A20252335780D0A69
:1034D00000000000F84A12681179F74A5268107823
:1034E0006B460122FEF7CEFD10B14FF0FF30C7E76B
:1034F000F14890F82400002853D00C200090EE4AA8
:1035000012681179EC4A526810786B460122FEF776
:10351000B9FD10B14FF0FF30B2E7322002F01BFBD3
:10352000C0200090E448807A00F0010020B19DF8AE
:10353000000040F020000090DF4A12681179DE4A56
:10354000526810786B460122FEF79CFD10B14FF0D7
:10355000FF3095E7D848407C10B10220009001E090
:1035600000200090D44A1268D17BD34A5268107868
:103570006B460122FEF786FD10B14FF0FF307FE76A
:1035800000200090CC4A12685179CB4A52681078DA
:103590006B460122FEF776FD002855D04FF0FF3034
:1035A0006EE704200090C44A12681179C24A52683A
:1035B00010786B460122FEF765FD10B14FF0FF3029
:1035C0005EE7BD48807C20B9BB48807A00F00100EE
:1035D00010B94020009001E060200090B64A1268C7
:1035E0001179B54A526810786B460122FEF74AFD00
:1035F00010B14FF0FF3043E7322002F0ACFAAE4892
:10360000407C10B10120009001E000200090AA4A07
:103610001268D17BA84A526810786B460122FEF7E7
:1036200031FD10B14FF0FF302AE7A34A12685179FB
:10363000A14A52681078A04B10330122FEF722FDF8
:1036400010B14FF0FF301BE7002019E770B50446BA
:10365000002624F00104984890F8240008B10020C6
:1036600070BD9548807A10B94FF0FF30F8E7924866
:10367000057C807A2040904908740846007CA0426E
:1036800002D04FF0FF3600E0002614B98A48007DD2
:1036900018B10120FFF722FD02E00020FFF71EFD18
:1036A0003CB1FFF7E7FE20B1834805744FF0FF30CF
:1036B000D6E73046D4E738B504467F48807A10B95B
:1036C0004FF0FF3038BDBC2C02DB0120009015E02C
:1036D000622C02DB0220009010E02A2C02DB032087
:1036E00000900BE0142C02DB0420009006E00A2C72
:1036F00002DB0520009001E0062000906E48C07AB1
:103700009DF80010884201D10020DBE76A4A126868
:103710009178694A526810786B460122FEF7B2FC34
:1037200010B14FF0FF30CDE79DF800106248C17234
:103730000020C7E738B50446282C02DD4FF0FF30E3
:1037400038BDDCB90020FFF759FD00208DF80000DE
:1037500007208DF80100584A1268917C564A526839
:1037600010786B460222FEF78DFC10B14FF0FF304F
:10377000E6E70021504801750020E1E70120FFF74E
:103780003DFD20208DF80000012C06D100208DF891
:1037900001000520FFF78FFF17E0052C06DC012054
:1037A0008DF801000520FFF786FF0EE0142C06DCE3
:1037B00002208DF801000A20FFF77DFF05E00320BD
:1037C0008DF801001420FFF776FF9DF80100072116
:1037D00001EB8010C0B28DF80100374A1268917C6D
:1037E000354A526810786B460222FEF74BFC10B146
:1037F0004FF0FF30A4E708212F48817200210173A8
:10380000012101750020FFF721FF002098E738B55E
:1038100004462948807A10B94FF0FF3038BD264859
:1038200090F8240010B14FF0FF30F7E72248007DF8
:1038300050B134B1282C04DCE0B2FFF77BFF00204C
:10384000ECE70020FFF776FF042C01DA042404E003
:10385000B4F57A7F01DD4FF47A744FF47A7090FBFF
:10386000F4F0401EC0B20090134A12685178124A18
:10387000526810786B460122FEF704FC10B14FF03D
:10388000FF30CBE79DF80000401C4FF47A7191FBAC
:10389000F0F081B20848C1810146C9894810FFF79C
:1038A0000AFF0020BAE738B504460348807A28B9F1
:1038B0004FF0FF3038BD000018000020022C06D069
:1038C000042C07D0082C08D0102C0CD108E00020C4
:1038D00000900BE00820009008E01020009005E028
:1038E0001820009002E04FF0FF30E3E700BFF948F6
:1038F000407A9DF80010B0EBE10F01D10020D9E72C
:10390000F44A1268D179F34A526810786B46012262
:10391000FEF7B8FB10B14FF0FF30CBE79DF8000089
:10392000C110EC4841720020C4E738B50446E948AC
:10393000807A10B94FF0FF3038BDFA2C09D0B4F5B9
:10394000FA7F09D0B4F57A7F09D0B4F5FA6F0CD1BB
:1039500008E0002000900BE00820009008E0102014
:10396000009005E01820009002E04FF0FF30E3E700
:1039700000BFD848007A9DF80010B0EBE10F01D1EC
:103980000020D9E7D34A12689179D24A5268107858
:103990006B460122FEF776FB10B14FF0FF30CBE70C
:1039A0009DF80000C010CB4908720020C4E71CB588
:1039B00080208DF80000C74A1268917CC54A526881
:1039C00010786B460122FEF75DFB10B14FF0FF301F
:1039D0001CBD642002F0BFF800208DF80000BD4A35
:1039E0001268917CBB4A526810786B460122FEF740
:1039F00049FB10B14FF0FF30EAE7B64A1268917DFB
:103A0000B44A526810786B460622FEF786FA10B167
:103A10004FF0FF30DCE79DF80500C007400F9DF830
:103A2000031001F0010140EA41009DF8011001F08E
:103A3000010140EA010494B1012C03D10121A54800
:103A4000C17431E0022C03D10021A248C1742BE0E3
:103A50002146A1A003F0DEFE4FF0FF30B8E79D4AFB
:103A60001268D1789B4A526810786B460122FEF7A3
:103A700054FA10B14FF0FF30AAE79DF8000000F0B3
:103A80000F042CB99E4803F0C5FE4FF0FF309FE7AE
:103A9000042C06D19BA003F0BDFE01218D48C1740A
:103AA00002E000218B48C174FF218A488172FF2007
:103AB00088490872FF2187484172C1724FF6FF7131
:103AC000C181FF21017481740121017380F82210EA
:103AD000002180F8231041750175163001604160A6
:103AE0008160163880F8241080F82510C1844FF4C6
:103AF000FA60FFF71AFF10B14FF0FF3068E70220BD
:103B0000FFF7D1FE10B14FF0FF3061E72A20FFF739
:103B1000D2FD10B14FF0FF305AE73220FFF777FEA9
:103B200010B14FF0FF3053E70020FFF78FFD10B1C9
:103B30004FF0FF304CE70020FFF7F8FB10B14FF0DB
:103B4000FF3045E70020FFF78CFB002040E770477F
:103B50007CB504460D465F48807A00F0700010B9CD
:103B60004FF0FF307CBD5B4A1268117B594A5268A6
:103B700010786B460622FEF7D0F910B14FF0FF30F7
:103B8000F0E79DF801009DF8001040EA012000B226
:103B900020809DF803009DF8021040EA012000B249
:103BA00060809DF805009DF8041040EA012000B2F5
:103BB000A08015B12846FFF7CAFF0020D2E77CB5E8
:103BC00004460D464348807A00F0080010B94FF0D3
:103BD000FF307CBD3F4A1268517B3E4A52681078E4
:103BE0006B460622FEF799F910B14FF0FF30F0E76F
:103BF0009DF801009DF8001040EA012000B22080ED
:103C00009DF803009DF8021040EA012000B2608098
:103C10009DF805009DF8041040EA012000B2A08044
:103C200015B12846FFF793FF0020D2E72DE9FE4F9C
:103C300005460C462748807A18B94FF0FF30BDE89A
:103C4000FE8F244A1268917B224A5268107802AB98
:103C50000222FEF762F910B14FF0FF30EFE79DF856
:103C600009009DF8081040EA012006B214B1204670
:103C7000FFF76DFF17494968C88805F037FC1549FB
:103C800001904968B1F9080005F018FC83463046F8
:103C900005F014FC5946009005F078FD8246019924
:103CA00005F0DAFA81461F4905F068FA80464FF0C0
:103CB0008F4105F063FC074605F0C4FB2860002037
:103CC000BDE710B588B004461CB94FF0FF3008B00E
:103CD00010BD29E018000020556E737570706F726A
:103CE00074656420736F6674776172652070726F9B
:103CF00064756374207265762025642E0A000000C6
:103D0000A0A7000848616C662073656E73697469CA
:103D100076697479207061727420666F756E642E96
:103D20000A00000000000C42206830B9606820B929
:103D3000A06810B9002008B010BDFA494968087899
:103D400006AB03221146FEF7E8F810B14FF0FF3042
:103D5000F1E79DF81800082101EB201000F00F009A
:103D6000ADF800009DF8190001EB201000F00F00E5
:103D7000ADF802009DF81A0001EB201000F00F00D2
:103D8000ADF8040020684100BDF90000403091FB0F
:103D9000F0F000B2ADF8100060684100BDF902001B
:103DA000403091FBF0F000B2ADF81200A068410085
:103DB000BDF90400403091FBF0F000B2ADF8140002
:103DC000D8494968087806AB06221146FEF7A5F8DF
:103DD00010B14FF0FF30AEE79DF819009DF81810B4
:103DE00040EA012000B2ADF808009DF81B009DF8E4
:103DF0001A1040EA012000B2ADF80A009DF81D003B
:103E00009DF81C1040EA012000B2ADF80C00BDF88E
:103E10001000BDF80810084400B2ADF81000BDF85D
:103E20001200BDF80A10084400B2ADF81200BDF847
:103E30001400BDF80C10084400B2ADF81400BDF831
:103E40001000000A8DF81800BDF81000C0B28DF8FF
:103E50001900BDF81200000A8DF81A00BDF8120012
:103E6000C0B28DF81B00BDF81400000A8DF81C00CC
:103E7000BDF81400C0B28DF81D00AA494968087841
:103E800006AB06221146FEF7FDF810B14FF0FF30E9
:103E900051E700204FE70146A248007A30B10128DF
:103EA00007D0022809D003280FD10AE0FA200880A1
:103EB0000EE04FF4FA7008800AE04FF47A70088040
:103EC00006E04FF4FA60088002E00020088000BF9E
:103ED00000BF0020704701469248407A30B1012867
:103EE00007D0022808D003280CD108E0022008706F
:103EF0000BE00420087008E00820087005E010209E
:103F0000087002E04FF0FF30704700BF8548C07C6A
:103F100018B108784006000E08700020F4E701464A
:103F20008048C07A082817D2DFE800F01704070A93
:103F30000D101318BC20088013E06220088010E0E8
:103F40002A2008800DE0142008800AE00A2008805A
:103F500007E00520088004E000BF00BF00200880C3
:103F600000BF00BF0020704701466E4890F8240053
:103F700010B14FF0FF3070476A48C08908800020B8
:103F8000F9E7014600200880401E704701464FF0C7
:103F9000FF30704701466348007A30B1012807D0EE
:103FA000022808D003280CD108E05F4808600BE025
:103FB0005E48086008E05E48086005E05D4808600B
:103FC00002E04FF0FF30704700BF0020FBE70146E2
:103FD0005448407A30B1012808D002280AD003287A
:103FE00010D10BE04FF4804008800EE041F69C7049
:103FF00008800AE04FF48050088006E04FF400602B
:10400000088002E04FF0FF30704700BF4548C07C99
:1040100010B10888401008800020F5E701464148AB
:10402000007C08700020704701463E48807A10B13D
:104030000120087001E0002008700020704738B5AA
:1040400004463848807A10B94FF0FF3038BD354A01
:104050001268117C334A526810786B460222FDF7D1
:104060005CFF10B14FF0FF30F0E79DF801009DF8C4
:10407000001040EA012000B220800020E6E72DE990
:10408000FE4F0746884692461D46DDF830B00026B2
:104090000024244890F8240010B1601EBDE8FE8F73
:1040A000002028701F48807A10B94FF0FF30F5E7E4
:1040B0001C48007C10B94FF0FF30EFE71948007C36
:1040C00000F0400008B1B01CC6B21648007C00F0F9
:1040D000200008B1B01CC6B21248007C00F01000ED
:1040E00008B1B01CC6B20F48007C00F0080008B14F
:1040F000B01DC6B20B4A1268917A0A4A526810780B
:104100006B460222FDF709FF10B14FF0FF30C5E703
:104110009DF801009DF8001040EA0129B1450BDA35
:104120000020BBE71800002000000343000083428A
:104130003333034233338341FC4840684088B9EB52
:10414000600F17DDF94A1268517CF84A52681078FE
:104150006B460122FDF7E1FE10B14FF0FF309DE705
:104160009DF8000000F0100020B1FFF783F96FF018
:10417000010093E75046FFF7EAFCEC4A1268D17A57
:10418000EA4A526810786B463246FDF7C6FE10B117
:104190004FF0FF3082E799FBF6F0401E8BF80000ED
:1041A00000202870B4422AD0E048007C00F00800CB
:1041B00028B3601C1DF800001DF8041040EA01201F
:1041C00000B2A8F80000E01C1DF80010A01C1DF8AB
:1041D000000041EA002000B2A8F80200601D1DF8AE
:1041E0000010201D1DF8000041EA002000B2A8F8D0
:1041F0000400287840F008002870A01D84B2B44262
:1042000013D0CA48007C00F0400070B1601C1DF85B
:1042100000001DF8041040EA012000B23880287820
:1042200040F040002870A01C84B2B44213D0BF48B4
:10423000007C00F0200070B1601C1DF800001DF82B
:10424000041040EA012000B27880287840F0200075
:104250002870A01C84B2B44213D0B448007C00F093
:10426000100070B1601C1DF800001DF8041040EA39
:10427000012000B2B880287840F010002870A01CFF
:1042800084B200200AE7F8B504460F461646A74850
:1042900090F8240010B94FF0FF30F8BDA348807AA1
:1042A00010B94FF0FF30F8E7A04A1268917A9F4AA0
:1042B000526810786B460222FDF72FFE10B14FF0C6
:1042C000FF30EAE79DF801009DF8001040EA012563
:1042D000A54203DA00203070401EDEE793484068B4
:1042E0004088B5EB600F17DD904A1268517C8F4A09
:1042F000526810786B460122FDF70FFE10B14FF0A7
:10430000FF30CAE79DF8000000F0100020B1FFF771
:10431000B1F86FF00100C0E7E2B2844B1B68D97AB4
:10432000824B5B6818783B46FDF7F7FD10B14FF004
:10433000FF30B2E795FBF4F0401E30700020ACE790
:1043400001467A4880F82210002070477CB5054667
:1043500076494968087801AB04220D21FDF7DDFD9F
:1043600008B107207CBD9DF80700C0F301109DF83F
:10437000041001F0E00140EAE1008DF800009DF832
:104380000700C0F381009DF8051001F0E00140EA4C
:10439000E1008DF801009DF8070000F003009DF892
:1043A000061001F0E00140EAE1008DF8020000246F
:1043B0001CE01DF8040018B9002045F8240013E0A3
:1043C0005B4845F8240006E055F82400594905F0FB
:1043D000D5F845F824001DF80400401EC0B20DF8C1
:1043E00004000028F0D100BF601CC4B2032CE0DB45
:1043F0000020B7E72DE9FE4F06460F460025684628
:10440000FFF7A4FF002442E056F8240057F82410D8
:10441000A0EB010ABAF1000F01DB514601E0CAF13D
:104420000001084605F04AF883464FF08F4104F03A
:1044300013FF80465DF82400002104F0CFFF16D062
:104440005DF82410404604F007FF82464FF07E518D
:1044500005F09CF9814629F0004A3748416A5046E8
:1044600005F058F912D20120A04005430EE0324871
:10447000C169404605F04EF805D32F48016A404611
:1044800005F048F902D20120A0400543641C032C2A
:10449000BADB2846BDE8FE8F2DE9FC5F06460F46D5
:1044A000002522494968087801AB03220D21FDF758
:1044B00034FD10B10720BDE8FC9F9DF8040000F01A
:1044C0001F008DF804009DF8050000F01F008DF816
:1044D00005009DF8060000F01F008DF8060000247E
:1044E00062E056F8240057F82410A0EB010BBBF152
:1044F000000F01DB594601E0CBF10001084604F052
:10450000DDFF4FF08F41009004F0A6FE814601A828
:10451000005DC0B30849086804F0E8FF83465946C7
:10452000064804F099FE80460FE0000018000020C5
:104530007B14AE3E1D5A843F84A5000800B04C4554
:10454000FE49404605F01AF8804601A8005D401E6D
:10455000C0B201A908550028F2D14146484604F0EE
:104560007BFE83464FF07E5105F010F982462AF01B
:10457000004BF3488169584605F0CCF813D201206E
:10458000A04005430FE0FFE7ED480169484604F00D
:10459000C1FF05D3EA484169484605F0BBF802D29D
:1045A0000120A0400543641C032C9ADB284682E7C7
:1045B0002DE9F04F87B005460C46914601208DF855
:1045C000100000208DF81100DE4A1268917CDD4A4F
:1045D0005268107804AB0222FDF754FD20B14FF071
:1045E000FF3007B0BDE8F08FC82001F0B4FA00201A
:1045F0008DF81000D34A1268D17BD24A52681078E5
:1046000004AB0122FDF73EFD10B14FF0FF30E8E7AB
:10461000CC4A12685179CB4A5268107804AB012217
:10462000FDF730FD10B14FF0FF30DAE7C54A1268F0
:10463000917CC44A5268107804AB0122FDF722FD38
:1046400010B14FF0FF30CCE7BE4A1268D17DBD4AB1
:104650005268107804AB0122FDF714FD10B14FF041
:10466000FF30BEE7B74A12681179B64A526810782F
:1046700004AB0122FDF706FD10B14FF0FF30B0E7AB
:104680000C208DF81000AF4A12681179AD4A5268BB
:10469000107804AB0122FDF7F5FC10B14FF0FF30AC
:1046A0009FE70F2001F057FAA648806A407A8DF8FC
:1046B0001000A44A12689178A24A5268107804AB9C
:1046C0000122FDF7DFFC10B14FF0FF3089E79D4874
:1046D000806A007A8DF810009A4A12685178994AD7
:1046E0005268107804AB0122FDF7CCFC10B14FF0FA
:1046F000FF3076E7B9F1000F07D09248806A807AE0
:1047000040F0E0008DF8100004E08E48806A807A66
:104710008DF810008B4A126891798A4A5268107895
:1047200004AB0122FDF7AEFC10B14FF0FF3058E7AB
:10473000B9F1000F07D08348806AC07A40F0E000EA
:104740008DF8100003E07E48C07A8DF810007D4A95
:104750001268D1797B4A5268107804AB0122FDF7C8
:1047600091FC10B14FF0FF303BE7B9F1000F02D0E0
:10477000C82001F0F0F940208DF81000714A12684D
:104780001179704A5268107804AB0122FDF77AFC67
:1047900010B14FF0FF3024E778208DF81000694AFF
:1047A00012685179674A5268107804AB0122FDF70C
:1047B00069FC10B14FF0FF3013E76149888901F0BF
:1047C000CAF900208DF810005E4A126851795D4ADE
:1047D0005268107804AB0122FDF754FC10B14FF081
:1047E000FF30FEE6574A1268917A564A52681078AE
:1047F00004AB0222FDF791FB10B14FF0FF30F0E661
:104800009DF811009DF8101040EA012B0C209BFB35
:10481000F0F0C6B20020A86068602860A060606008
:104820002060824665E0474A1268D17A454A52685C
:10483000107804AB0C22FDF770FB10B14FF0FF3085
:10484000CFE69DF811009DF8101040EA012000B25B
:10485000ADF808009DF813009DF8121040EA012001
:1048600000B2ADF80A009DF815009DF8141040EA5A
:10487000012000B2ADF80C00BDF908102068084412
:104880002060BDF90A10606808446060BDF90C1032
:10489000A0680844A0609DF817009DF8161040EA33
:1048A000012000B2ADF800009DF819009DF8181025
:1048B00040EA012000B2ADF802009DF81B009DF80F
:1048C0001A1040EA012000B2ADF80400BDF9001052
:1048D000286808442860BDF90210686808446860C8
:1048E000BDF90410A8680844A8600AF1010000F0AE
:1048F000FF0AB24597DB1248D0F800C02868C117FC
:10490000090441EA1041070462460023384602F0D8
:104910005CFF32460023CDE9020102F056FF286019
:104920000748D0F800C06868C117090441EA10417F
:10493000070462460023384606E0000054E3853F42
:1049400084A500081800002002F03FFF3246002333
:10495000CDE9020102F039FF6860FE48D0F800C0DE
:10496000A868C117090441EA104107046246002300
:10497000384602F02AFF32460023CDE9020102F058
:1049800024FFA860F348D0F804C02168C8170004C9
:1049900040EA11480F04624600233846414602F0BF
:1049A00014FF32460023CDE9020102F00EFF206021
:1049B000E848D0F804C06068C117090441EA104112
:1049C000070462460023384602F0FFFE3246002309
:1049D000CDE9020102F0F9FE6060DE48D0F804C0C3
:1049E000A068C117090441EA104107046246002388
:1049F000384602F0EAFE32460023CDE9020102F019
:104A0000E4FEA060A068002804DDA068A0F5803066
:104A1000A06003E0A06800F58030A0600020E0E521
:104A200038B50446CC4890F82400A04201D10020BB
:104A300038BD24B3C84890F8250010B94FF0FF30B6
:104A4000F6E70020FEF74AFB0020FEF76FFCC249A4
:104A5000C88CFEF7DCFE00200090BF49496808784A
:104A60006B4601222321FDF70DFB0121BA4880F896
:104A700024100120FEF732FBFEF7FCFC13E00020BF
:104A8000FEF72CFBB448007C0090B34949680878D5
:104A90006B4601222321FDF7F5FA0021AE4880F88C
:104AA0002410FEF7E7FC0020C2E72DE9F04F8DB09F
:104AB00083460F4602200C90A74890F8240020B1AE
:104AC0000020FFF7ADFF012600E0002603A8FFF756
:104AD000E2F905A8FFF7FFF901A8FFF720FA02A8FD
:104AE000FFF742FA9C4890F80AA004A8FFF796FA4C
:104AF000002407E0002239465846FFF759FD00B967
:104B000002E0641C022CF5DB00BF022C01D1002561
:104B100028E0002407E0012206A909A8FFF748FDC4
:104B200000B902E0641C022CF5DB00BF022C01D1AD
:104B3000002517E006A93846FFF75CFC00F0FF08E7
:104B400009A95846FFF7A8FC00F0FF090025B9F1B4
:104B5000000F01D145F00105B8F1000F01D145F07A
:104B6000020500BFFF207C490872FF217A4841728C
:104B7000C1724FF6FF71C181FF2181720174012161
:104B80000173BDF80C00FEF7D0FE9DF81400FEF78F
:104B90008AFEBDF80400FEF78EFDBDF80800FEF7A2
:104BA00036FE5046FEF75DFB9DF81000FEF74EFD09
:104BB00016B10120FFF734FF28460DB0BDE8F08F95
:104BC000F8B504460D46164616B94FF0FF30F8BD4D
:104BD0006148807A10B94FF0FF30F8E720128DF865
:104BE0000000E0B28DF801009DF8010028445A4908
:104BF00049684989884202DD4FF0FF30E7E7564AAD
:104C00001268117E544A526810786B460222FDF7F2
:104C100039FA10B14FF0FF30D9E7EAB24E4B1B68BA
:104C2000597D4D4B5B6818783346FDF72BFA10B170
:104C30004FF0FF30CBE70020C9E7F8B504460D463A
:104C4000164616B94FF0FF30F8BD4348807A10B9C8
:104C50004FF0FF30F8E720128DF80000E0B28DF839
:104C600001009DF8010028443B4949684989884270
:104C700002DD4FF0FF30E7E7374A1268117E364A0F
:104C8000526810786B460222FDF7FCF910B14FF024
:104C9000FF30D9E7EAB2304B1B68597D2E4B5B6879
:104CA00018783346FDF739F910B14FF0FF30CBE7F4
:104CB0000020C9E72DE9F04385B005460E46904631
:104CC0009946254890F8250020B14FF0FF3005B0F7
:104CD000BDE8F08316B94FF0FF30F8E7002423E079
:104CE000281B102801DD102000E0281B87B2321994
:104CF00039462046FFF764FF10B14FF0FF30E6E77A
:104D000001AA39462046FFF798FF10B14FF0FF3057
:104D1000DDE730193A4601A902F0B4FE10B16FF098
:104D20000100D4E7E01984B2AC42D9DB4FEA282075
:104D30008DF8000008F0FF008DF80100064A1268A7
:104D4000917E054A526810786B460222FDF79AF967
:104D500038B103E084A50008180000204FF0FF30B0
:104D6000B5E70121FE4880F82510A0F82690002024
:104D7000ADE70146FA4890F824000870002070471B
:104D80004FF0FF30704702464FF0FF30704701464A
:104D90004FF0FF307047F8B505460F461446002C1B
:104DA00070D0B5F5FF5F01DDFF2605E0202D01DAAB
:104DB000012601E0C5F3471607B90127282C02DDBB
:104DC0004FF0FF30F8BDE648407D28BBE44890F83E
:104DD000240038B10020FFF723FE0121E04880F8CD
:104DE000201003E00021DE4880F82010DC48163057
:104DF000FFF751F8DA481830FFF76DF8D8481A3045
:104E0000FFF78DF8D6481C30FFF7AEF8D448817A0A
:104E100081771F30FFF702F90020FEF75FF90020CD
:104E2000FEF788FC00208DF80000CD4A12689178CA
:104E3000CB4A526810786B460122FDF723F910B176
:104E40004FF0FF30BEE740208DF80000C44A1268E2
:104E5000D17BC34A526810786B460122FDF712F9E4
:104E600000B165E08DF800608DF80170BC4A1268F1
:104E7000117ABB4A526810786B460222FDF702F99C
:104E800008B155E047E0052000F065FEB448407ADF
:104E9000072101EBC000C0B28DF80000B04A1268D3
:104EA000D179AF4A526810786B460122FDF7EAF8D3
:104EB00000B13DE020208DF80000012C03D100203E
:104EC0008DF801000EE0052C03DC01208DF80100B7
:104ED00008E0142C03DC02208DF8010002E003201E
:104EE0008DF801009DF80100072101EB8010C0B290
:104EF0008DF801009A4A1268917C994A526810789C
:104F00006B460222FDF7BEF800B111E00121944882
:104F10004175002056E7924A1632002103E0505CAA
:104F200000B105E0491C0C29F9D34FF0FF3049E7E7
:104F3000FF208B490872FF2189484172C1724FF6E8
:104F4000FF71C181FF21817201740121017301464A
:104F5000887FFEF786F98249C88AFEF7E6FC804919
:104F6000087EFEF7A0FC7E49488BFEF7A4FB7C4937
:104F7000888BFEF74CFC7A49C87FFEF767FB7848C0
:104F800090F8200010B10120FFF74AFD002174487D
:104F90004175002016E770B588B002A905A8FFF793
:104FA00084FD0446032C3ED101A8FEF7F3FF0598CB
:104FB00004F084FA0646019904F0E0FA054604F08C
:104FC00041FA0590069804F079FA0646019904F032
:104FD000D5FA054604F036FA0690079804F06EFA02
:104FE0000646019904F0CAFA054604F02BFA079028
:104FF00005A8FDF756FA6846FEF7E9FFBDF8001070
:10500000029848430290BDF800100398484303906B
:10501000BDF8001004984843049002A8FDF7D4FAA4
:10502000002008B070BD0120FBE7014691F9002087
:10503000002A01DD00201EE091F90020002A01DA9B
:10504000042018E091F90120002A01DD012012E07E
:1050500091F90120002A01DA05200CE091F90220E3
:10506000002A01DD022006E091F90220002A01DA7F
:10507000062000E00720704710B504462046FFF7E1
:10508000D4FF0346E01CFFF7D0FF43EAC00083B221
:10509000A01DFFF7CAFF43EA801083B2184610BD77
:1050A00070B50024FDF731F8FEF781FC002840D1EF
:1050B0007820FEF7D6F8C4B20CB1012070BD78207C
:1050C000FEF7C4FAC4B20CB10220F7E76420FEF781
:1050D0009EFBC4B20CB10320F0E7FDF747F9C4B260
:1050E0000CB10420EAE71F48FFF7C6FF0546FDF7AD
:1050F00047F9C4B20CB10520E0E740F27310FDF7A8
:1051000080FDC4B20CB10620D8E76420FDF7F2FAA6
:10511000C4B20CB10720D1E7FFF73DFF04460CB144
:105120000820CBE70120FFF77BFCC4B21CB10920AB
:10513000C4E70A20C2E70020C0E72DE9F04F99B08C
:1051400004460D4616464FF07E574FF000084FF0CC
:1051500000094FF0000A12A813A918AB0EAA03E029
:105160001800002044000020CDE9001014A916A862
:10517000FDF7A6FE68B112A813A918AB0EAACDE9D7
:10518000001014A916A8FDF79BFEC0B219B0BDE827
:10519000F08FBDF84C0000F4807000287ED00E988F
:1051A00004F08CF983464FF09D4104F055F8074612
:1051B0000F9804F083F983464FF09D4104F04CF8BA
:1051C0008046109804F07AF983464FF09D4104F030
:1051D00043F88146119804F071F983464FF09D41E0
:1051E00004F03AF8824639464FF0804004F0C6F9A0
:1051F0004946059004F0C2F9414607904FF04040FF
:1052000004F0BCF95146059004F0B8F906900799EE
:1052100003F0B4FF834603F085FFCDE9080102F0F7
:10522000A9FE4FF06632544BCDE90A0103F06AFC47
:10523000CDE90C0103F0CCF9206049464FF08040E5
:1052400004F09CF94946029004F098F94146049014
:105250004FF0404004F092F94146029004F08EF97C
:105260000390049904F092FA83464FF07E5103F0C4
:1052700085FF059003F056FFCDE9080139464FF050
:10528000804004F07BF94146039004F077F94946E9
:1052900004904FF0804004F071F900E068E051465E
:1052A000039004F06BF98346049903F067FF0590BF
:1052B00003F038FFCDE90601DDE9082303F0A2F889
:1052C0004FF066322C4BCDE90A0103F01BFCCDE90F
:1052D0000C0103F07DF928605146504604F04EF968
:1052E00049460490484604F049F941460390404637
:1052F00004F044F939460190384604F03FF9009033
:10530000019903F03BFF0290039904F03FFA8346B2
:10531000049904F03BFA059003F004FFCDE908017D
:105320005146384604F02AF949460490404604F0B4
:1053300025F90390049903F021FF4FF08041059077
:1053400004F01CF9834603F0EDFECDE90601DDE92A
:10535000082303F057F84FF06632074BCDE90A01F6
:1053600003F0D0FBCDE90C0103F032F9306001E02D
:1053700002200BE7002009E766A64C4010B54FF469
:10538000165000F023FC10BD70B5B2B03A25C8220B
:105390000C49684602F0A2FB0026002400F05AF9EE
:1053A0000BE00948005D38B10748015D074802F08D
:1053B00043F9012000F0CFFB641C072CF1DB32B075
:1053C00070BD0000ACA500084D0000200038014071
:1053D00008B50121042001F081F84FF46050ADF8C8
:1053E000000010208DF8030003208DF802006946AC
:1053F000E64800F0B7FD4FF40051E44800F05FFECE
:105400004FF40061E14800F05AFE08BD70B5054652
:105410000E464FF40051DD4800F053FE00241AE020
:105420000120A040284028B14FF48051D74800F017
:1054300048FE04E04FF48051D44800F040FE4FF4A1
:105440000061D24800F03DFE4FF40061CF4800F00B
:1054500036FE601CC4B2082CE2DB00241AE00120F6
:10546000A040304028B14FF48051C84800F029FED8
:1054700004E04FF48051C54800F021FE4FF4006174
:10548000C24800F01EFE4FF40061C04800F017FE55
:10549000601CC4B2082CE2DB4FF40051BB4800F0A2
:1054A0000EFE70BD70B50546002645F001054FF4AF
:1054B0000051B64800F005FE00241AE00120A0408B
:1054C000284028B14FF48051B04800F0FAFD04E0C4
:1054D0004FF48051AD4800F0F2FD4FF40061AB484D
:1054E00000F0EFFD4FF40061A84800F0E8FD601CFB
:1054F000C4B2082CE2DB00240FE04FF40061A348A3
:1055000000F0DFFD4FF40061A04800F0D8FD01205D
:10551000A0403043C6B2601CC4B2082CEDDB4FF48F
:1055200000519A4800F0CBFD4FF48051974800F0AD
:10553000C6FD304670BD10B500218E20FFF766FF16
:10554000934800780A2190FBF1F201FB1201904888
:1055500000780A2290FBF2F001EB0010C4B2214661
:105560008C20FFF753FF8A4840780A2190FBF1F224
:1055700001FB1201864840780A2290FBF2F001EB11
:105580000010C4B221468820FFF740FF8048807891
:105590000A2190FBF1F201FB12017D4880780A227A
:1055A00090FBF2F001EB0010C4B221468620FFF719
:1055B0002DFF7748C0780A2190FBF1F201FB120120
:1055C0007348C0780A2290FBF2F001EB0010C4B2DD
:1055D00021468420FFF71AFF6D4800790A2190FBCD
:1055E000F1F201FB12016A4800790A2290FBF2F005
:1055F00001EB0010C4B221468220FFF707FF644888
:1056000040790A2190FBF1F201FB120160484079D8
:105610000A2290FBF2F001EB0010C4B22146802078
:10562000FFF7F4FE5A4880790A2190FBF1F201FB62
:105630001201574880790A2290FBF2F001EB00102A
:10564000C4B221468A20FFF7E1FE80218E20FFF7B9
:10565000DDFE10BD10B58C20FFF724FF0446204668
:10566000E21704EB12721211A4EB02122146E317A7
:1056700004EB13731B1103EB830302EB4302444B54
:105680001A708820FFF70EFF04462046E21704EB4D
:1056900012721211A4EB02122146E31704EB1373EA
:1056A0001B1103EB830302EB4302394B5A70862034
:1056B000FFF7F8FE04462046E21704EB12721211BF
:1056C000A4EB02122146E31704EB13731B1103EB47
:1056D000830302EB43022E4B9A708420FFF7E2FE15
:1056E00004462046E21704EB12721211A4EB0212D8
:1056F0002146E31704EB13731B1103EB830302EB47
:105700004302234BDA708220FFF7CCFE044620468A
:10571000E21704EB12721211A4EB02122146E317F6
:1057200004EB13731B1103EB830302EB4302184BCF
:105730001A718020FFF7B6FE04462046E21704EBFC
:1057400012721211A4EB02122146E31704EB137339
:105750001B1103EB830302EB43020D4B5A718A20AA
:10576000FFF7A0FE04462046E21704EB1272121166
:10577000A4EB02122146E31704EB13731B1103EB96
:10578000830302EB4302024B9A7110BD00080140F3
:105790004D00002010B54FF4165000F063FA10BD14
:1057A00010B50024024801F04BFFC4B2204610BDE2
:1057B0000044004000B589B00121082000F08EFEB1
:1057C0000121042000F097FE4FF40070ADF8200096
:1057D00028208DF8230003208DF8220008A999487D
:1057E00000F0C0FB4FF40071964800F068FC42F2F4
:1057F0001070ADF814004720ADF810000020ADF88F
:105800001600ADF8120004A98F4800F09FFF0C208D
:10581000ADF804000020ADF806000120ADF8080046
:105820000020ADF80A000320ADF80C0001A986485D
:1058300001F01FFA0121844801F0E4FA1E208DF8DE
:105840001C0001208DF81D0003208DF81E00012092
:105850008DF81F0007A800F0BCFA012211217A4838
:1058600001F0EBFA09B000BD10B50121764801F056
:1058700092FDF8B17548007800F08000D0B173480F
:10588000007820F01000714908700846007800F098
:105890000F0020B90846007840F0400008706B48BF
:1058A000007800F00F000E2805DA68480078401CE8
:1058B000664908700AE06548007820F08000634976
:1058C00008700846007800F0F000087010215E486B
:1058D00001F061FD002810D05D48006870B1022120
:1058E000594801F087FC0021574801F01FFD574837
:1058F000007840F010005549087070E0524801F0FF
:1059000034FD5449088000214F4801F073FC4F4892
:10591000007800F0100000285BD04C48007800F0C0
:105920008000E8B34B480088B0F5967F0DDD49480C
:105930000088B0F5487F08DA4748006840004649CB
:10594000086008460068086043E042480088B0F5F7
:10595000AF6F0FDD3F480088B0F5E16F0ADA3E48CF
:10596000006840003C4908600846006840F00100BB
:1059700008602EE03748008840F69801884228DD0C
:105980003448008840F62821884222DA33480078DB
:10599000401C324908702D48007800F0F00000E00B
:1059A00002E02A49087014E02A48008841F26801A0
:1059B00088420EDD2748008841F25C21884208DADF
:1059C0002248007840F080002049087000202349D8
:1059D00008701E48007820F010001C490870112142
:1059E000194801F0E9FC10BD10B50020174B1B78D9
:1059F00003F040032BB3184B1B68190E164B1B68A2
:105A0000C3F30742D343DBB28B420BD151B9124BE4
:105A10001B88C3F30721104B1A78D343DBB28B42A8
:105A200000D1084620B1094B1B7803F0800343B92D
:105A3000064B1B7823F04003044C23700023074CD3
:105A4000237010BD000C01400008004054000020ED
:105A50002481214256000020580000205C000020D4
:105A600010B5FBF7B0FB632344F62062042107481E
:105A7000FBF7D1FB10BD10B50A2000F06CF844F222
:105A8000506204210148FBF726FC10BD00040040D1
:105A900008B50121482000F021FD2020ADF80000CC
:105AA00010208DF8030003208DF802006946094894
:105AB00000F058FA2021074800F001FB2020ADF843
:105AC00000006946044800F04DFA2021024800F029
:105AD000F6FA08BD000C01400018014010B56FF047
